


ARM Macro Assembler    Page 1 


    1 00000000         ;/*!
    2 00000000         ;    \file  startup_gd32f1x0.s
    3 00000000         ;    \brief start up file
    4 00000000         ;*/
    5 00000000         
    6 00000000         ;/*
    7 00000000         ;    Copyright (C) 2016 GigaDevice
    8 00000000         
    9 00000000         ;    2014-12-26, V1.0.0, firmware for GD32F1x0(x=3,5)
   10 00000000         ;    2016-01-15, V2.0.0, firmware for GD32F1x0(x=3,5,7,9
                       )
   11 00000000         ;    2016-04-30, V3.0.0, firmware update for GD32F1x0(x=
                       3,5,7,9)
   12 00000000         ;*/
   13 00000000         
   14 00000000         ; <h> Stack Configuration
   15 00000000         ;   <o> Stack Size (in Bytes) <0x0-0xFFFFFFFF:8>
   16 00000000         ; </h>
   17 00000000         
   18 00000000 00000400 
                       Stack_Size
                               EQU              0x00000400
   19 00000000         
   20 00000000                 AREA             STACK, NOINIT, READWRITE, ALIGN
=3
   21 00000000         Stack_Mem
                               SPACE            Stack_Size
   22 00000400         __initial_sp
   23 00000400         
   24 00000400         
   25 00000400         ; <h> Heap Configuration
   26 00000400         ;   <o>  Heap Size (in Bytes) <0x0-0xFFFFFFFF:8>
   27 00000400         ; </h>
   28 00000400         
   29 00000400 00000400 
                       Heap_Size
                               EQU              0x00000400
   30 00000400         
   31 00000400                 AREA             HEAP, NOINIT, READWRITE, ALIGN=
3
   32 00000000         __heap_base
   33 00000000         Heap_Mem
                               SPACE            Heap_Size
   34 00000400         __heap_limit
   35 00000400         
   36 00000400                 PRESERVE8
   37 00000400                 THUMB
   38 00000400         
   39 00000400         ;               /* reset Vector Mapped to at Address 0 *
                       /
   40 00000400                 AREA             RESET, DATA, READONLY
   41 00000000                 EXPORT           __Vectors
   42 00000000                 EXPORT           __Vectors_End
   43 00000000                 EXPORT           __Vectors_Size
   44 00000000         
   45 00000000 00000000 
                       __Vectors
                               DCD              __initial_sp ; Top of Stack
   46 00000004 00000000        DCD              Reset_Handler ; Reset Handler



ARM Macro Assembler    Page 2 


   47 00000008 00000000        DCD              NMI_Handler ; NMI Handler
   48 0000000C 00000000        DCD              HardFault_Handler ; Hard Fault 
                                                            Handler
   49 00000010 00000000        DCD              MemManage_Handler 
                                                            ; MPU Fault Handler
                                                            
   50 00000014 00000000        DCD              BusFault_Handler 
                                                            ; Bus Fault Handler
                                                            
   51 00000018 00000000        DCD              UsageFault_Handler ; Usage Faul
                                                            t Handler
   52 0000001C 00000000        DCD              0           ; Reserved
   53 00000020 00000000        DCD              0           ; Reserved
   54 00000024 00000000        DCD              0           ; Reserved
   55 00000028 00000000        DCD              0           ; Reserved
   56 0000002C 00000000        DCD              SVC_Handler ; SVCall Handler
   57 00000030 00000000        DCD              DebugMon_Handler ; Debug Monito
                                                            r Handler
   58 00000034 00000000        DCD              0           ; Reserved
   59 00000038 00000000        DCD              PendSV_Handler ; PendSV Handler
                                                            
   60 0000003C 00000000        DCD              SysTick_Handler 
                                                            ; SysTick Handler
   61 00000040         
   62 00000040         ;               /* external interrupts handler */
   63 00000040 00000000        DCD              WWDGT_IRQHandler ; 16:Window Wa
                                                            tchdog Timer
   64 00000044 00000000        DCD              LVD_IRQHandler ; 17:LVD through
                                                             EXTI Line detect
   65 00000048 00000000        DCD              RTC_IRQHandler ; 18:RTC through
                                                             EXTI Line
   66 0000004C 00000000        DCD              FMC_IRQHandler ; 19:FMC
   67 00000050 00000000        DCD              RCU_IRQHandler ; 20:RCU
   68 00000054 00000000        DCD              EXTI0_1_IRQHandler ; 21:EXTI Li
                                                            ne 0 and EXTI Line 
                                                            1
   69 00000058 00000000        DCD              EXTI2_3_IRQHandler ; 22:EXTI Li
                                                            ne 2 and EXTI Line 
                                                            3
   70 0000005C 00000000        DCD              EXTI4_15_IRQHandler ; 23:EXTI L
                                                            ine 4 to EXTI Line 
                                                            15
   71 00000060 00000000        DCD              TSI_IRQHandler ; 24:TSI
   72 00000064 00000000        DCD              DMA_Channel0_IRQHandler 
                                                            ; 25:DMA Channel 0 
                                                            
   73 00000068 00000000        DCD              DMA_Channel1_2_IRQHandler ; 26:
                                                            DMA Channel 1 and D
                                                            MA Channel 2
   74 0000006C 00000000        DCD              DMA_Channel3_4_IRQHandler ; 27:
                                                            DMA Channel 3 and D
                                                            MA Channel 4
   75 00000070 00000000        DCD              ADC_CMP_IRQHandler ; 28:ADC and
                                                             Comparator 0-1
   76 00000074 00000000        DCD              TIMER0_BRK_UP_TRG_COM_IRQHandle
r 
                                                            ; 29:TIMER0 Break,U
                                                            pdate,Trigger and C
                                                            ommutation



ARM Macro Assembler    Page 3 


   77 00000078 00000000        DCD              TIMER0_CC_IRQHandler ; 30:TIMER
                                                            0 Capture Compare
   78 0000007C 00000000        DCD              TIMER1_IRQHandler ; 31:TIMER1
   79 00000080 00000000        DCD              TIMER2_IRQHandler ; 32:TIMER2
   80 00000084 00000000        DCD              TIMER5_DAC_IRQHandler 
                                                            ; 33:TIMER5 and DAC
                                                            
   81 00000088 00000000        DCD              0           ; Reserved
   82 0000008C 00000000        DCD              TIMER13_IRQHandler ; 35:TIMER13
                                                            
   83 00000090 00000000        DCD              TIMER14_IRQHandler ; 36:TIMER14
                                                            
   84 00000094 00000000        DCD              TIMER15_IRQHandler ; 37:TIMER15
                                                            
   85 00000098 00000000        DCD              TIMER16_IRQHandler ; 38:TIMER16
                                                            
   86 0000009C 00000000        DCD              I2C0_EV_IRQHandler 
                                                            ; 39:I2C0 Event
   87 000000A0 00000000        DCD              I2C1_EV_IRQHandler 
                                                            ; 40:I2C1 Event
   88 000000A4 00000000        DCD              SPI0_IRQHandler ; 41:SPI0
   89 000000A8 00000000        DCD              SPI1_IRQHandler ; 42:SPI1
   90 000000AC 00000000        DCD              USART0_IRQHandler ; 43:USART0
   91 000000B0 00000000        DCD              USART1_IRQHandler ; 44:USART1
   92 000000B4 00000000        DCD              0           ; Reserved
   93 000000B8 00000000        DCD              CEC_IRQHandler ; 46:CEC
   94 000000BC 00000000        DCD              0           ; Reserved
   95 000000C0 00000000        DCD              I2C0_ER_IRQHandler 
                                                            ; 48:I2C0 Error
   96 000000C4 00000000        DCD              0           ; Reserved
   97 000000C8 00000000        DCD              I2C1_ER_IRQHandler 
                                                            ; 50:I2C1 Error
   98 000000CC 00000000        DCD              I2C2_EV_IRQHandler 
                                                            ; 51:I2C2 Event
   99 000000D0 00000000        DCD              I2C2_ER_IRQHandler 
                                                            ; 52:I2C2 Error
  100 000000D4 00000000        DCD              USBD_LP_IRQHandler ; 53:USBD LP
                                                            
  101 000000D8 00000000        DCD              USBD_HP_IRQHandler ; 54:USBD HP
                                                            
  102 000000DC 00000000        DCD              0           ; Reserved
  103 000000E0 00000000        DCD              0           ; Reserved
  104 000000E4 00000000        DCD              0           ; Reserved
  105 000000E8 00000000        DCD              USBDWakeUp_IRQHandler 
                                                            ; 58:USBD Wakeup
  106 000000EC 00000000        DCD              CAN0_TX_IRQHandler ; 59:CAN0 TX
                                                            
  107 000000F0 00000000        DCD              CAN0_RX0_IRQHandler 
                                                            ; 60:CAN0 RX0
  108 000000F4 00000000        DCD              CAN0_RX1_IRQHandler 
                                                            ; 61:CAN0 RX1
  109 000000F8 00000000        DCD              CAN0_SCE_IRQHandler 
                                                            ; 62:CAN0 SCE
  110 000000FC 00000000        DCD              SLCD_IRQHandler ; 63:SLCD
  111 00000100 00000000        DCD              DMA_Channel5_6_IRQHandler ; 64:
                                                            DMA Channel5 and Ch
                                                            annel6 
  112 00000104 00000000        DCD              0           ; Reserved
  113 00000108 00000000        DCD              0           ; Reserved



ARM Macro Assembler    Page 4 


  114 0000010C 00000000        DCD              SPI2_IRQHandler ; 67:SPI2
  115 00000110 00000000        DCD              0           ; Reserved
  116 00000114 00000000        DCD              0           ; Reserved
  117 00000118 00000000        DCD              0           ; Reserved
  118 0000011C 00000000        DCD              0           ; Reserved
  119 00000120 00000000        DCD              0           ; Reserved
  120 00000124 00000000        DCD              0           ; Reserved
  121 00000128 00000000        DCD              0           ; Reserved
  122 0000012C 00000000        DCD              0           ; Reserved
  123 00000130 00000000        DCD              0           ; Reserved
  124 00000134 00000000        DCD              0           ; Reserved
  125 00000138 00000000        DCD              0           ; Reserved
  126 0000013C 00000000        DCD              0           ; Reserved
  127 00000140 00000000        DCD              0           ; Reserved
  128 00000144 00000000        DCD              0           ; Reserved
  129 00000148 00000000        DCD              0           ; Reserved
  130 0000014C 00000000        DCD              0           ; Reserved
  131 00000150 00000000        DCD              0           ; Reserved
  132 00000154 00000000        DCD              0           ; Reserved
  133 00000158 00000000        DCD              CAN1_TX_IRQHandler ; 86:CAN1 TX
                                                            
  134 0000015C 00000000        DCD              CAN1_RX0_IRQHandler 
                                                            ; 87:CAN1 RX0
  135 00000160 00000000        DCD              CAN1_RX1_IRQHandler 
                                                            ; 88:CAN1 RX1
  136 00000164 00000000        DCD              CAN1_SCE_IRQHandler 
                                                            ; 89:CAN1 SCE
  137 00000168         __Vectors_End
  138 00000168         
  139 00000168 00000168 
                       __Vectors_Size
                               EQU              __Vectors_End - __Vectors
  140 00000168         
  141 00000168                 AREA             |.text|, CODE, READONLY
  142 00000000         
  143 00000000         ;/* reset Handler */
  144 00000000         Reset_Handler
                               PROC
  145 00000000                 EXPORT           Reset_Handler                  
   [WEAK]
  146 00000000                 IMPORT           SystemInit
  147 00000000                 IMPORT           __main
  148 00000000 4806            LDR              R0, =SystemInit
  149 00000002 4780            BLX              R0
  150 00000004 4806            LDR              R0, =__main
  151 00000006 4700            BX               R0
  152 00000008                 ENDP
  153 00000008         
  154 00000008         ;/* dummy Exception Handlers */
  155 00000008         NMI_Handler
                               PROC
  156 00000008                 EXPORT           NMI_Handler                    
   [WEAK]
  157 00000008 E7FE            B                .
  158 0000000A                 ENDP
  160 0000000A         HardFault_Handler
                               PROC
  161 0000000A                 EXPORT           HardFault_Handler              
   [WEAK]



ARM Macro Assembler    Page 5 


  162 0000000A E7FE            B                .
  163 0000000C                 ENDP
  165 0000000C         MemManage_Handler
                               PROC
  166 0000000C                 EXPORT           MemManage_Handler              
   [WEAK]
  167 0000000C E7FE            B                .
  168 0000000E                 ENDP
  170 0000000E         BusFault_Handler
                               PROC
  171 0000000E                 EXPORT           BusFault_Handler               
   [WEAK]
  172 0000000E E7FE            B                .
  173 00000010                 ENDP
  175 00000010         UsageFault_Handler
                               PROC
  176 00000010                 EXPORT           UsageFault_Handler             
   [WEAK]
  177 00000010 E7FE            B                .
  178 00000012                 ENDP
  179 00000012         SVC_Handler
                               PROC
  180 00000012                 EXPORT           SVC_Handler                    
   [WEAK]
  181 00000012 E7FE            B                .
  182 00000014                 ENDP
  184 00000014         DebugMon_Handler
                               PROC
  185 00000014                 EXPORT           DebugMon_Handler               
   [WEAK]
  186 00000014 E7FE            B                .
  187 00000016                 ENDP
  189 00000016         PendSV_Handler
                               PROC
  190 00000016                 EXPORT           PendSV_Handler                 
   [WEAK]
  191 00000016 E7FE            B                .
  192 00000018                 ENDP
  194 00000018         SysTick_Handler
                               PROC
  195 00000018                 EXPORT           SysTick_Handler                
   [WEAK]
  196 00000018 E7FE            B                .
  197 0000001A                 ENDP
  198 0000001A         
  199 0000001A         Default_Handler
                               PROC
  200 0000001A         ;               /* external interrupts handler */
  201 0000001A                 EXPORT           WWDGT_IRQHandler               
   [WEAK]
  202 0000001A                 EXPORT           LVD_IRQHandler                 
   [WEAK]
  203 0000001A                 EXPORT           RTC_IRQHandler                 
   [WEAK]
  204 0000001A                 EXPORT           FMC_IRQHandler                 
   [WEAK]
  205 0000001A                 EXPORT           RCU_IRQHandler                 
   [WEAK]
  206 0000001A                 EXPORT           EXTI0_1_IRQHandler             



ARM Macro Assembler    Page 6 


   [WEAK]
  207 0000001A                 EXPORT           EXTI2_3_IRQHandler             
   [WEAK]
  208 0000001A                 EXPORT           EXTI4_15_IRQHandler            
   [WEAK]
  209 0000001A                 EXPORT           TSI_IRQHandler                 
   [WEAK]
  210 0000001A                 EXPORT           DMA_Channel0_IRQHandler        
   [WEAK]
  211 0000001A                 EXPORT           DMA_Channel1_2_IRQHandler      
   [WEAK]
  212 0000001A                 EXPORT           DMA_Channel3_4_IRQHandler      
   [WEAK]
  213 0000001A                 EXPORT           ADC_CMP_IRQHandler             
   [WEAK]
  214 0000001A                 EXPORT           TIMER0_BRK_UP_TRG_COM_IRQHandle
r  [WEAK]
  215 0000001A                 EXPORT           TIMER0_CC_IRQHandler           
   [WEAK]
  216 0000001A                 EXPORT           TIMER1_IRQHandler              
   [WEAK]
  217 0000001A                 EXPORT           TIMER2_IRQHandler              
   [WEAK]
  218 0000001A                 EXPORT           TIMER5_DAC_IRQHandler          
   [WEAK]
  219 0000001A                 EXPORT           TIMER13_IRQHandler             
   [WEAK]
  220 0000001A                 EXPORT           TIMER14_IRQHandler             
   [WEAK]
  221 0000001A                 EXPORT           TIMER15_IRQHandler             
   [WEAK]
  222 0000001A                 EXPORT           TIMER16_IRQHandler             
   [WEAK]
  223 0000001A                 EXPORT           I2C0_EV_IRQHandler             
   [WEAK]
  224 0000001A                 EXPORT           I2C1_EV_IRQHandler             
   [WEAK]
  225 0000001A                 EXPORT           SPI0_IRQHandler                
   [WEAK]
  226 0000001A                 EXPORT           SPI1_IRQHandler                
   [WEAK]
  227 0000001A                 EXPORT           USART0_IRQHandler              
   [WEAK]
  228 0000001A                 EXPORT           USART1_IRQHandler              
   [WEAK]
  229 0000001A                 EXPORT           CEC_IRQHandler                 
   [WEAK]
  230 0000001A                 EXPORT           I2C0_ER_IRQHandler             
   [WEAK]
  231 0000001A                 EXPORT           I2C1_ER_IRQHandler             
   [WEAK]
  232 0000001A                 EXPORT           I2C2_EV_IRQHandler             
   [WEAK]
  233 0000001A                 EXPORT           I2C2_ER_IRQHandler             
   [WEAK]
  234 0000001A                 EXPORT           USBD_LP_IRQHandler             
   [WEAK]
  235 0000001A                 EXPORT           USBD_HP_IRQHandler             
   [WEAK]



ARM Macro Assembler    Page 7 


  236 0000001A                 EXPORT           USBDWakeUp_IRQHandler          
   [WEAK]
  237 0000001A                 EXPORT           CAN0_TX_IRQHandler             
   [WEAK]
  238 0000001A                 EXPORT           CAN0_RX0_IRQHandler            
   [WEAK]
  239 0000001A                 EXPORT           CAN0_RX1_IRQHandler            
   [WEAK]
  240 0000001A                 EXPORT           CAN0_SCE_IRQHandler            
   [WEAK]
  241 0000001A                 EXPORT           SLCD_IRQHandler                
   [WEAK]
  242 0000001A                 EXPORT           DMA_Channel5_6_IRQHandler      
   [WEAK]
  243 0000001A                 EXPORT           SPI2_IRQHandler                
   [WEAK]
  244 0000001A                 EXPORT           CAN1_TX_IRQHandler             
   [WEAK]
  245 0000001A                 EXPORT           CAN1_RX0_IRQHandler            
   [WEAK]
  246 0000001A                 EXPORT           CAN1_RX1_IRQHandler            
   [WEAK]
  247 0000001A                 EXPORT           CAN1_SCE_IRQHandler            
   [WEAK]
  248 0000001A         
  249 0000001A         ;/* external interrupts handler */
  250 0000001A         WWDGT_IRQHandler
  251 0000001A         LVD_IRQHandler
  252 0000001A         RTC_IRQHandler
  253 0000001A         FMC_IRQHandler
  254 0000001A         RCU_IRQHandler
  255 0000001A         EXTI0_1_IRQHandler
  256 0000001A         EXTI2_3_IRQHandler
  257 0000001A         EXTI4_15_IRQHandler
  258 0000001A         TSI_IRQHandler
  259 0000001A         DMA_Channel0_IRQHandler
  260 0000001A         DMA_Channel1_2_IRQHandler
  261 0000001A         DMA_Channel3_4_IRQHandler
  262 0000001A         ADC_CMP_IRQHandler
  263 0000001A         TIMER0_BRK_UP_TRG_COM_IRQHandler
  264 0000001A         TIMER0_CC_IRQHandler
  265 0000001A         TIMER1_IRQHandler
  266 0000001A         TIMER2_IRQHandler
  267 0000001A         TIMER5_DAC_IRQHandler
  268 0000001A         TIMER13_IRQHandler
  269 0000001A         TIMER14_IRQHandler
  270 0000001A         TIMER15_IRQHandler
  271 0000001A         TIMER16_IRQHandler
  272 0000001A         I2C0_EV_IRQHandler
  273 0000001A         I2C1_EV_IRQHandler
  274 0000001A         SPI0_IRQHandler
  275 0000001A         SPI1_IRQHandler
  276 0000001A         USART0_IRQHandler
  277 0000001A         USART1_IRQHandler
  278 0000001A         CEC_IRQHandler
  279 0000001A         I2C0_ER_IRQHandler
  280 0000001A         I2C1_ER_IRQHandler
  281 0000001A         I2C2_EV_IRQHandler
  282 0000001A         I2C2_ER_IRQHandler



ARM Macro Assembler    Page 8 


  283 0000001A         USBD_LP_IRQHandler
  284 0000001A         USBD_HP_IRQHandler
  285 0000001A         USBDWakeUp_IRQHandler
  286 0000001A         CAN0_TX_IRQHandler
  287 0000001A         CAN0_RX0_IRQHandler
  288 0000001A         CAN0_RX1_IRQHandler
  289 0000001A         CAN0_SCE_IRQHandler
  290 0000001A         SLCD_IRQHandler
  291 0000001A         DMA_Channel5_6_IRQHandler
  292 0000001A         SPI2_IRQHandler
  293 0000001A         CAN1_TX_IRQHandler
  294 0000001A         CAN1_RX0_IRQHandler
  295 0000001A         CAN1_RX1_IRQHandler
  296 0000001A         CAN1_SCE_IRQHandler
  297 0000001A E7FE            B                .
  298 0000001C                 ENDP
  299 0000001C         
  300 0000001C                 ALIGN
  301 0000001C         
  302 0000001C         ; user Initial Stack & Heap
  303 0000001C         
  304 0000001C                 IF               :DEF:__MICROLIB
  305 0000001C         
  306 0000001C                 EXPORT           __initial_sp
  307 0000001C                 EXPORT           __heap_base
  308 0000001C                 EXPORT           __heap_limit
  309 0000001C         
  310 0000001C                 ELSE
  325                          ENDIF
  326 0000001C         
  327 0000001C                 END
              00000000 
              00000000 
Command Line: --debug --liston --xref --cpu=Cortex-M3 --apcs=/interwork --depen
d=.\output\startup_gd32f1x0.d -o.\output\startup_gd32f1x0.o -ID:\keil\ARM\ARMCC
\include -ID:\keil\ARM\RV31\INC -ID:\keil\ARM\CMSIS\Include -ID:\keil\ARM\Inc\G
D\GD32F1x0 --predefine="__EVAL SETA 1" --predefine="__MICROLIB SETA 1" --predef
ine="__UVISION_VERSION SETA 513" ..\..\Firmware\CMSIS\GD\GD32F1x0\Source\ARM\st
artup_gd32f1x0.s



ARM Macro Assembler    Page 1 Alphabetic symbol ordering
Relocatable symbols

STACK 00000000

Symbol: STACK
   Definitions
      At line 20 in file ..\..\Firmware\CMSIS\GD\GD32F1x0\Source\ARM\startup_gd
32f1x0.s
   Uses
      None
Comment: STACK unused
Stack_Mem 00000000

Symbol: Stack_Mem
   Definitions
      At line 21 in file ..\..\Firmware\CMSIS\GD\GD32F1x0\Source\ARM\startup_gd
32f1x0.s
   Uses
      None
Comment: Stack_Mem unused
__initial_sp 00000400

Symbol: __initial_sp
   Definitions
      At line 22 in file ..\..\Firmware\CMSIS\GD\GD32F1x0\Source\ARM\startup_gd
32f1x0.s
   Uses
      At line 45 in file ..\..\Firmware\CMSIS\GD\GD32F1x0\Source\ARM\startup_gd
32f1x0.s
      At line 306 in file ..\..\Firmware\CMSIS\GD\GD32F1x0\Source\ARM\startup_g
d32f1x0.s

3 symbols



ARM Macro Assembler    Page 1 Alphabetic symbol ordering
Relocatable symbols

HEAP 00000000

Symbol: HEAP
   Definitions
      At line 31 in file ..\..\Firmware\CMSIS\GD\GD32F1x0\Source\ARM\startup_gd
32f1x0.s
   Uses
      None
Comment: HEAP unused
Heap_Mem 00000000

Symbol: Heap_Mem
   Definitions
      At line 33 in file ..\..\Firmware\CMSIS\GD\GD32F1x0\Source\ARM\startup_gd
32f1x0.s
   Uses
      None
Comment: Heap_Mem unused
__heap_base 00000000

Symbol: __heap_base
   Definitions
      At line 32 in file ..\..\Firmware\CMSIS\GD\GD32F1x0\Source\ARM\startup_gd
32f1x0.s
   Uses
      At line 307 in file ..\..\Firmware\CMSIS\GD\GD32F1x0\Source\ARM\startup_g
d32f1x0.s
Comment: __heap_base used once
__heap_limit 00000400

Symbol: __heap_limit
   Definitions
      At line 34 in file ..\..\Firmware\CMSIS\GD\GD32F1x0\Source\ARM\startup_gd
32f1x0.s
   Uses
      At line 308 in file ..\..\Firmware\CMSIS\GD\GD32F1x0\Source\ARM\startup_g
d32f1x0.s
Comment: __heap_limit used once
4 symbols



ARM Macro Assembler    Page 1 Alphabetic symbol ordering
Relocatable symbols

RESET 00000000

Symbol: RESET
   Definitions
      At line 40 in file ..\..\Firmware\CMSIS\GD\GD32F1x0\Source\ARM\startup_gd
32f1x0.s
   Uses
      None
Comment: RESET unused
__Vectors 00000000

Symbol: __Vectors
   Definitions
      At line 45 in file ..\..\Firmware\CMSIS\GD\GD32F1x0\Source\ARM\startup_gd
32f1x0.s
   Uses
      At line 41 in file ..\..\Firmware\CMSIS\GD\GD32F1x0\Source\ARM\startup_gd
32f1x0.s
      At line 139 in file ..\..\Firmware\CMSIS\GD\GD32F1x0\Source\ARM\startup_g
d32f1x0.s

__Vectors_End 00000168

Symbol: __Vectors_End
   Definitions
      At line 137 in file ..\..\Firmware\CMSIS\GD\GD32F1x0\Source\ARM\startup_g
d32f1x0.s
   Uses
      At line 42 in file ..\..\Firmware\CMSIS\GD\GD32F1x0\Source\ARM\startup_gd
32f1x0.s
      At line 139 in file ..\..\Firmware\CMSIS\GD\GD32F1x0\Source\ARM\startup_g
d32f1x0.s

3 symbols



ARM Macro Assembler    Page 1 Alphabetic symbol ordering
Relocatable symbols

.text 00000000

Symbol: .text
   Definitions
      At line 141 in file ..\..\Firmware\CMSIS\GD\GD32F1x0\Source\ARM\startup_g
d32f1x0.s
   Uses
      None
Comment: .text unused
ADC_CMP_IRQHandler 0000001A

Symbol: ADC_CMP_IRQHandler
   Definitions
      At line 262 in file ..\..\Firmware\CMSIS\GD\GD32F1x0\Source\ARM\startup_g
d32f1x0.s
   Uses
      At line 75 in file ..\..\Firmware\CMSIS\GD\GD32F1x0\Source\ARM\startup_gd
32f1x0.s
      At line 213 in file ..\..\Firmware\CMSIS\GD\GD32F1x0\Source\ARM\startup_g
d32f1x0.s

BusFault_Handler 0000000E

Symbol: BusFault_Handler
   Definitions
      At line 170 in file ..\..\Firmware\CMSIS\GD\GD32F1x0\Source\ARM\startup_g
d32f1x0.s
   Uses
      At line 50 in file ..\..\Firmware\CMSIS\GD\GD32F1x0\Source\ARM\startup_gd
32f1x0.s
      At line 171 in file ..\..\Firmware\CMSIS\GD\GD32F1x0\Source\ARM\startup_g
d32f1x0.s

CAN0_RX0_IRQHandler 0000001A

Symbol: CAN0_RX0_IRQHandler
   Definitions
      At line 287 in file ..\..\Firmware\CMSIS\GD\GD32F1x0\Source\ARM\startup_g
d32f1x0.s
   Uses
      At line 107 in file ..\..\Firmware\CMSIS\GD\GD32F1x0\Source\ARM\startup_g
d32f1x0.s
      At line 238 in file ..\..\Firmware\CMSIS\GD\GD32F1x0\Source\ARM\startup_g
d32f1x0.s

CAN0_RX1_IRQHandler 0000001A

Symbol: CAN0_RX1_IRQHandler
   Definitions
      At line 288 in file ..\..\Firmware\CMSIS\GD\GD32F1x0\Source\ARM\startup_g
d32f1x0.s
   Uses
      At line 108 in file ..\..\Firmware\CMSIS\GD\GD32F1x0\Source\ARM\startup_g
d32f1x0.s
      At line 239 in file ..\..\Firmware\CMSIS\GD\GD32F1x0\Source\ARM\startup_g
d32f1x0.s

CAN0_SCE_IRQHandler 0000001A




ARM Macro Assembler    Page 2 Alphabetic symbol ordering
Relocatable symbols

Symbol: CAN0_SCE_IRQHandler
   Definitions
      At line 289 in file ..\..\Firmware\CMSIS\GD\GD32F1x0\Source\ARM\startup_g
d32f1x0.s
   Uses
      At line 109 in file ..\..\Firmware\CMSIS\GD\GD32F1x0\Source\ARM\startup_g
d32f1x0.s
      At line 240 in file ..\..\Firmware\CMSIS\GD\GD32F1x0\Source\ARM\startup_g
d32f1x0.s

CAN0_TX_IRQHandler 0000001A

Symbol: CAN0_TX_IRQHandler
   Definitions
      At line 286 in file ..\..\Firmware\CMSIS\GD\GD32F1x0\Source\ARM\startup_g
d32f1x0.s
   Uses
      At line 106 in file ..\..\Firmware\CMSIS\GD\GD32F1x0\Source\ARM\startup_g
d32f1x0.s
      At line 237 in file ..\..\Firmware\CMSIS\GD\GD32F1x0\Source\ARM\startup_g
d32f1x0.s

CAN1_RX0_IRQHandler 0000001A

Symbol: CAN1_RX0_IRQHandler
   Definitions
      At line 294 in file ..\..\Firmware\CMSIS\GD\GD32F1x0\Source\ARM\startup_g
d32f1x0.s
   Uses
      At line 134 in file ..\..\Firmware\CMSIS\GD\GD32F1x0\Source\ARM\startup_g
d32f1x0.s
      At line 245 in file ..\..\Firmware\CMSIS\GD\GD32F1x0\Source\ARM\startup_g
d32f1x0.s

CAN1_RX1_IRQHandler 0000001A

Symbol: CAN1_RX1_IRQHandler
   Definitions
      At line 295 in file ..\..\Firmware\CMSIS\GD\GD32F1x0\Source\ARM\startup_g
d32f1x0.s
   Uses
      At line 135 in file ..\..\Firmware\CMSIS\GD\GD32F1x0\Source\ARM\startup_g
d32f1x0.s
      At line 246 in file ..\..\Firmware\CMSIS\GD\GD32F1x0\Source\ARM\startup_g
d32f1x0.s

CAN1_SCE_IRQHandler 0000001A

Symbol: CAN1_SCE_IRQHandler
   Definitions
      At line 296 in file ..\..\Firmware\CMSIS\GD\GD32F1x0\Source\ARM\startup_g
d32f1x0.s
   Uses
      At line 136 in file ..\..\Firmware\CMSIS\GD\GD32F1x0\Source\ARM\startup_g
d32f1x0.s
      At line 247 in file ..\..\Firmware\CMSIS\GD\GD32F1x0\Source\ARM\startup_g
d32f1x0.s

CAN1_TX_IRQHandler 0000001A



ARM Macro Assembler    Page 3 Alphabetic symbol ordering
Relocatable symbols


Symbol: CAN1_TX_IRQHandler
   Definitions
      At line 293 in file ..\..\Firmware\CMSIS\GD\GD32F1x0\Source\ARM\startup_g
d32f1x0.s
   Uses
      At line 133 in file ..\..\Firmware\CMSIS\GD\GD32F1x0\Source\ARM\startup_g
d32f1x0.s
      At line 244 in file ..\..\Firmware\CMSIS\GD\GD32F1x0\Source\ARM\startup_g
d32f1x0.s

CEC_IRQHandler 0000001A

Symbol: CEC_IRQHandler
   Definitions
      At line 278 in file ..\..\Firmware\CMSIS\GD\GD32F1x0\Source\ARM\startup_g
d32f1x0.s
   Uses
      At line 93 in file ..\..\Firmware\CMSIS\GD\GD32F1x0\Source\ARM\startup_gd
32f1x0.s
      At line 229 in file ..\..\Firmware\CMSIS\GD\GD32F1x0\Source\ARM\startup_g
d32f1x0.s

DMA_Channel0_IRQHandler 0000001A

Symbol: DMA_Channel0_IRQHandler
   Definitions
      At line 259 in file ..\..\Firmware\CMSIS\GD\GD32F1x0\Source\ARM\startup_g
d32f1x0.s
   Uses
      At line 72 in file ..\..\Firmware\CMSIS\GD\GD32F1x0\Source\ARM\startup_gd
32f1x0.s
      At line 210 in file ..\..\Firmware\CMSIS\GD\GD32F1x0\Source\ARM\startup_g
d32f1x0.s

DMA_Channel1_2_IRQHandler 0000001A

Symbol: DMA_Channel1_2_IRQHandler
   Definitions
      At line 260 in file ..\..\Firmware\CMSIS\GD\GD32F1x0\Source\ARM\startup_g
d32f1x0.s
   Uses
      At line 73 in file ..\..\Firmware\CMSIS\GD\GD32F1x0\Source\ARM\startup_gd
32f1x0.s
      At line 211 in file ..\..\Firmware\CMSIS\GD\GD32F1x0\Source\ARM\startup_g
d32f1x0.s

DMA_Channel3_4_IRQHandler 0000001A

Symbol: DMA_Channel3_4_IRQHandler
   Definitions
      At line 261 in file ..\..\Firmware\CMSIS\GD\GD32F1x0\Source\ARM\startup_g
d32f1x0.s
   Uses
      At line 74 in file ..\..\Firmware\CMSIS\GD\GD32F1x0\Source\ARM\startup_gd
32f1x0.s
      At line 212 in file ..\..\Firmware\CMSIS\GD\GD32F1x0\Source\ARM\startup_g
d32f1x0.s




ARM Macro Assembler    Page 4 Alphabetic symbol ordering
Relocatable symbols

DMA_Channel5_6_IRQHandler 0000001A

Symbol: DMA_Channel5_6_IRQHandler
   Definitions
      At line 291 in file ..\..\Firmware\CMSIS\GD\GD32F1x0\Source\ARM\startup_g
d32f1x0.s
   Uses
      At line 111 in file ..\..\Firmware\CMSIS\GD\GD32F1x0\Source\ARM\startup_g
d32f1x0.s
      At line 242 in file ..\..\Firmware\CMSIS\GD\GD32F1x0\Source\ARM\startup_g
d32f1x0.s

DebugMon_Handler 00000014

Symbol: DebugMon_Handler
   Definitions
      At line 184 in file ..\..\Firmware\CMSIS\GD\GD32F1x0\Source\ARM\startup_g
d32f1x0.s
   Uses
      At line 57 in file ..\..\Firmware\CMSIS\GD\GD32F1x0\Source\ARM\startup_gd
32f1x0.s
      At line 185 in file ..\..\Firmware\CMSIS\GD\GD32F1x0\Source\ARM\startup_g
d32f1x0.s

Default_Handler 0000001A

Symbol: Default_Handler
   Definitions
      At line 199 in file ..\..\Firmware\CMSIS\GD\GD32F1x0\Source\ARM\startup_g
d32f1x0.s
   Uses
      None
Comment: Default_Handler unused
EXTI0_1_IRQHandler 0000001A

Symbol: EXTI0_1_IRQHandler
   Definitions
      At line 255 in file ..\..\Firmware\CMSIS\GD\GD32F1x0\Source\ARM\startup_g
d32f1x0.s
   Uses
      At line 68 in file ..\..\Firmware\CMSIS\GD\GD32F1x0\Source\ARM\startup_gd
32f1x0.s
      At line 206 in file ..\..\Firmware\CMSIS\GD\GD32F1x0\Source\ARM\startup_g
d32f1x0.s

EXTI2_3_IRQHandler 0000001A

Symbol: EXTI2_3_IRQHandler
   Definitions
      At line 256 in file ..\..\Firmware\CMSIS\GD\GD32F1x0\Source\ARM\startup_g
d32f1x0.s
   Uses
      At line 69 in file ..\..\Firmware\CMSIS\GD\GD32F1x0\Source\ARM\startup_gd
32f1x0.s
      At line 207 in file ..\..\Firmware\CMSIS\GD\GD32F1x0\Source\ARM\startup_g
d32f1x0.s

EXTI4_15_IRQHandler 0000001A




ARM Macro Assembler    Page 5 Alphabetic symbol ordering
Relocatable symbols

Symbol: EXTI4_15_IRQHandler
   Definitions
      At line 257 in file ..\..\Firmware\CMSIS\GD\GD32F1x0\Source\ARM\startup_g
d32f1x0.s
   Uses
      At line 70 in file ..\..\Firmware\CMSIS\GD\GD32F1x0\Source\ARM\startup_gd
32f1x0.s
      At line 208 in file ..\..\Firmware\CMSIS\GD\GD32F1x0\Source\ARM\startup_g
d32f1x0.s

FMC_IRQHandler 0000001A

Symbol: FMC_IRQHandler
   Definitions
      At line 253 in file ..\..\Firmware\CMSIS\GD\GD32F1x0\Source\ARM\startup_g
d32f1x0.s
   Uses
      At line 66 in file ..\..\Firmware\CMSIS\GD\GD32F1x0\Source\ARM\startup_gd
32f1x0.s
      At line 204 in file ..\..\Firmware\CMSIS\GD\GD32F1x0\Source\ARM\startup_g
d32f1x0.s

HardFault_Handler 0000000A

Symbol: HardFault_Handler
   Definitions
      At line 160 in file ..\..\Firmware\CMSIS\GD\GD32F1x0\Source\ARM\startup_g
d32f1x0.s
   Uses
      At line 48 in file ..\..\Firmware\CMSIS\GD\GD32F1x0\Source\ARM\startup_gd
32f1x0.s
      At line 161 in file ..\..\Firmware\CMSIS\GD\GD32F1x0\Source\ARM\startup_g
d32f1x0.s

I2C0_ER_IRQHandler 0000001A

Symbol: I2C0_ER_IRQHandler
   Definitions
      At line 279 in file ..\..\Firmware\CMSIS\GD\GD32F1x0\Source\ARM\startup_g
d32f1x0.s
   Uses
      At line 95 in file ..\..\Firmware\CMSIS\GD\GD32F1x0\Source\ARM\startup_gd
32f1x0.s
      At line 230 in file ..\..\Firmware\CMSIS\GD\GD32F1x0\Source\ARM\startup_g
d32f1x0.s

I2C0_EV_IRQHandler 0000001A

Symbol: I2C0_EV_IRQHandler
   Definitions
      At line 272 in file ..\..\Firmware\CMSIS\GD\GD32F1x0\Source\ARM\startup_g
d32f1x0.s
   Uses
      At line 86 in file ..\..\Firmware\CMSIS\GD\GD32F1x0\Source\ARM\startup_gd
32f1x0.s
      At line 223 in file ..\..\Firmware\CMSIS\GD\GD32F1x0\Source\ARM\startup_g
d32f1x0.s

I2C1_ER_IRQHandler 0000001A



ARM Macro Assembler    Page 6 Alphabetic symbol ordering
Relocatable symbols


Symbol: I2C1_ER_IRQHandler
   Definitions
      At line 280 in file ..\..\Firmware\CMSIS\GD\GD32F1x0\Source\ARM\startup_g
d32f1x0.s
   Uses
      At line 97 in file ..\..\Firmware\CMSIS\GD\GD32F1x0\Source\ARM\startup_gd
32f1x0.s
      At line 231 in file ..\..\Firmware\CMSIS\GD\GD32F1x0\Source\ARM\startup_g
d32f1x0.s

I2C1_EV_IRQHandler 0000001A

Symbol: I2C1_EV_IRQHandler
   Definitions
      At line 273 in file ..\..\Firmware\CMSIS\GD\GD32F1x0\Source\ARM\startup_g
d32f1x0.s
   Uses
      At line 87 in file ..\..\Firmware\CMSIS\GD\GD32F1x0\Source\ARM\startup_gd
32f1x0.s
      At line 224 in file ..\..\Firmware\CMSIS\GD\GD32F1x0\Source\ARM\startup_g
d32f1x0.s

I2C2_ER_IRQHandler 0000001A

Symbol: I2C2_ER_IRQHandler
   Definitions
      At line 282 in file ..\..\Firmware\CMSIS\GD\GD32F1x0\Source\ARM\startup_g
d32f1x0.s
   Uses
      At line 99 in file ..\..\Firmware\CMSIS\GD\GD32F1x0\Source\ARM\startup_gd
32f1x0.s
      At line 233 in file ..\..\Firmware\CMSIS\GD\GD32F1x0\Source\ARM\startup_g
d32f1x0.s

I2C2_EV_IRQHandler 0000001A

Symbol: I2C2_EV_IRQHandler
   Definitions
      At line 281 in file ..\..\Firmware\CMSIS\GD\GD32F1x0\Source\ARM\startup_g
d32f1x0.s
   Uses
      At line 98 in file ..\..\Firmware\CMSIS\GD\GD32F1x0\Source\ARM\startup_gd
32f1x0.s
      At line 232 in file ..\..\Firmware\CMSIS\GD\GD32F1x0\Source\ARM\startup_g
d32f1x0.s

LVD_IRQHandler 0000001A

Symbol: LVD_IRQHandler
   Definitions
      At line 251 in file ..\..\Firmware\CMSIS\GD\GD32F1x0\Source\ARM\startup_g
d32f1x0.s
   Uses
      At line 64 in file ..\..\Firmware\CMSIS\GD\GD32F1x0\Source\ARM\startup_gd
32f1x0.s
      At line 202 in file ..\..\Firmware\CMSIS\GD\GD32F1x0\Source\ARM\startup_g
d32f1x0.s




ARM Macro Assembler    Page 7 Alphabetic symbol ordering
Relocatable symbols

MemManage_Handler 0000000C

Symbol: MemManage_Handler
   Definitions
      At line 165 in file ..\..\Firmware\CMSIS\GD\GD32F1x0\Source\ARM\startup_g
d32f1x0.s
   Uses
      At line 49 in file ..\..\Firmware\CMSIS\GD\GD32F1x0\Source\ARM\startup_gd
32f1x0.s
      At line 166 in file ..\..\Firmware\CMSIS\GD\GD32F1x0\Source\ARM\startup_g
d32f1x0.s

NMI_Handler 00000008

Symbol: NMI_Handler
   Definitions
      At line 155 in file ..\..\Firmware\CMSIS\GD\GD32F1x0\Source\ARM\startup_g
d32f1x0.s
   Uses
      At line 47 in file ..\..\Firmware\CMSIS\GD\GD32F1x0\Source\ARM\startup_gd
32f1x0.s
      At line 156 in file ..\..\Firmware\CMSIS\GD\GD32F1x0\Source\ARM\startup_g
d32f1x0.s

PendSV_Handler 00000016

Symbol: PendSV_Handler
   Definitions
      At line 189 in file ..\..\Firmware\CMSIS\GD\GD32F1x0\Source\ARM\startup_g
d32f1x0.s
   Uses
      At line 59 in file ..\..\Firmware\CMSIS\GD\GD32F1x0\Source\ARM\startup_gd
32f1x0.s
      At line 190 in file ..\..\Firmware\CMSIS\GD\GD32F1x0\Source\ARM\startup_g
d32f1x0.s

RCU_IRQHandler 0000001A

Symbol: RCU_IRQHandler
   Definitions
      At line 254 in file ..\..\Firmware\CMSIS\GD\GD32F1x0\Source\ARM\startup_g
d32f1x0.s
   Uses
      At line 67 in file ..\..\Firmware\CMSIS\GD\GD32F1x0\Source\ARM\startup_gd
32f1x0.s
      At line 205 in file ..\..\Firmware\CMSIS\GD\GD32F1x0\Source\ARM\startup_g
d32f1x0.s

RTC_IRQHandler 0000001A

Symbol: RTC_IRQHandler
   Definitions
      At line 252 in file ..\..\Firmware\CMSIS\GD\GD32F1x0\Source\ARM\startup_g
d32f1x0.s
   Uses
      At line 65 in file ..\..\Firmware\CMSIS\GD\GD32F1x0\Source\ARM\startup_gd
32f1x0.s
      At line 203 in file ..\..\Firmware\CMSIS\GD\GD32F1x0\Source\ARM\startup_g
d32f1x0.s



ARM Macro Assembler    Page 8 Alphabetic symbol ordering
Relocatable symbols


Reset_Handler 00000000

Symbol: Reset_Handler
   Definitions
      At line 144 in file ..\..\Firmware\CMSIS\GD\GD32F1x0\Source\ARM\startup_g
d32f1x0.s
   Uses
      At line 46 in file ..\..\Firmware\CMSIS\GD\GD32F1x0\Source\ARM\startup_gd
32f1x0.s
      At line 145 in file ..\..\Firmware\CMSIS\GD\GD32F1x0\Source\ARM\startup_g
d32f1x0.s

SLCD_IRQHandler 0000001A

Symbol: SLCD_IRQHandler
   Definitions
      At line 290 in file ..\..\Firmware\CMSIS\GD\GD32F1x0\Source\ARM\startup_g
d32f1x0.s
   Uses
      At line 110 in file ..\..\Firmware\CMSIS\GD\GD32F1x0\Source\ARM\startup_g
d32f1x0.s
      At line 241 in file ..\..\Firmware\CMSIS\GD\GD32F1x0\Source\ARM\startup_g
d32f1x0.s

SPI0_IRQHandler 0000001A

Symbol: SPI0_IRQHandler
   Definitions
      At line 274 in file ..\..\Firmware\CMSIS\GD\GD32F1x0\Source\ARM\startup_g
d32f1x0.s
   Uses
      At line 88 in file ..\..\Firmware\CMSIS\GD\GD32F1x0\Source\ARM\startup_gd
32f1x0.s
      At line 225 in file ..\..\Firmware\CMSIS\GD\GD32F1x0\Source\ARM\startup_g
d32f1x0.s

SPI1_IRQHandler 0000001A

Symbol: SPI1_IRQHandler
   Definitions
      At line 275 in file ..\..\Firmware\CMSIS\GD\GD32F1x0\Source\ARM\startup_g
d32f1x0.s
   Uses
      At line 89 in file ..\..\Firmware\CMSIS\GD\GD32F1x0\Source\ARM\startup_gd
32f1x0.s
      At line 226 in file ..\..\Firmware\CMSIS\GD\GD32F1x0\Source\ARM\startup_g
d32f1x0.s

SPI2_IRQHandler 0000001A

Symbol: SPI2_IRQHandler
   Definitions
      At line 292 in file ..\..\Firmware\CMSIS\GD\GD32F1x0\Source\ARM\startup_g
d32f1x0.s
   Uses
      At line 114 in file ..\..\Firmware\CMSIS\GD\GD32F1x0\Source\ARM\startup_g
d32f1x0.s
      At line 243 in file ..\..\Firmware\CMSIS\GD\GD32F1x0\Source\ARM\startup_g



ARM Macro Assembler    Page 9 Alphabetic symbol ordering
Relocatable symbols

d32f1x0.s

SVC_Handler 00000012

Symbol: SVC_Handler
   Definitions
      At line 179 in file ..\..\Firmware\CMSIS\GD\GD32F1x0\Source\ARM\startup_g
d32f1x0.s
   Uses
      At line 56 in file ..\..\Firmware\CMSIS\GD\GD32F1x0\Source\ARM\startup_gd
32f1x0.s
      At line 180 in file ..\..\Firmware\CMSIS\GD\GD32F1x0\Source\ARM\startup_g
d32f1x0.s

SysTick_Handler 00000018

Symbol: SysTick_Handler
   Definitions
      At line 194 in file ..\..\Firmware\CMSIS\GD\GD32F1x0\Source\ARM\startup_g
d32f1x0.s
   Uses
      At line 60 in file ..\..\Firmware\CMSIS\GD\GD32F1x0\Source\ARM\startup_gd
32f1x0.s
      At line 195 in file ..\..\Firmware\CMSIS\GD\GD32F1x0\Source\ARM\startup_g
d32f1x0.s

TIMER0_BRK_UP_TRG_COM_IRQHandler 0000001A

Symbol: TIMER0_BRK_UP_TRG_COM_IRQHandler
   Definitions
      At line 263 in file ..\..\Firmware\CMSIS\GD\GD32F1x0\Source\ARM\startup_g
d32f1x0.s
   Uses
      At line 76 in file ..\..\Firmware\CMSIS\GD\GD32F1x0\Source\ARM\startup_gd
32f1x0.s
      At line 214 in file ..\..\Firmware\CMSIS\GD\GD32F1x0\Source\ARM\startup_g
d32f1x0.s

TIMER0_CC_IRQHandler 0000001A

Symbol: TIMER0_CC_IRQHandler
   Definitions
      At line 264 in file ..\..\Firmware\CMSIS\GD\GD32F1x0\Source\ARM\startup_g
d32f1x0.s
   Uses
      At line 77 in file ..\..\Firmware\CMSIS\GD\GD32F1x0\Source\ARM\startup_gd
32f1x0.s
      At line 215 in file ..\..\Firmware\CMSIS\GD\GD32F1x0\Source\ARM\startup_g
d32f1x0.s

TIMER13_IRQHandler 0000001A

Symbol: TIMER13_IRQHandler
   Definitions
      At line 268 in file ..\..\Firmware\CMSIS\GD\GD32F1x0\Source\ARM\startup_g
d32f1x0.s
   Uses
      At line 82 in file ..\..\Firmware\CMSIS\GD\GD32F1x0\Source\ARM\startup_gd
32f1x0.s



ARM Macro Assembler    Page 10 Alphabetic symbol ordering
Relocatable symbols

      At line 219 in file ..\..\Firmware\CMSIS\GD\GD32F1x0\Source\ARM\startup_g
d32f1x0.s

TIMER14_IRQHandler 0000001A

Symbol: TIMER14_IRQHandler
   Definitions
      At line 269 in file ..\..\Firmware\CMSIS\GD\GD32F1x0\Source\ARM\startup_g
d32f1x0.s
   Uses
      At line 83 in file ..\..\Firmware\CMSIS\GD\GD32F1x0\Source\ARM\startup_gd
32f1x0.s
      At line 220 in file ..\..\Firmware\CMSIS\GD\GD32F1x0\Source\ARM\startup_g
d32f1x0.s

TIMER15_IRQHandler 0000001A

Symbol: TIMER15_IRQHandler
   Definitions
      At line 270 in file ..\..\Firmware\CMSIS\GD\GD32F1x0\Source\ARM\startup_g
d32f1x0.s
   Uses
      At line 84 in file ..\..\Firmware\CMSIS\GD\GD32F1x0\Source\ARM\startup_gd
32f1x0.s
      At line 221 in file ..\..\Firmware\CMSIS\GD\GD32F1x0\Source\ARM\startup_g
d32f1x0.s

TIMER16_IRQHandler 0000001A

Symbol: TIMER16_IRQHandler
   Definitions
      At line 271 in file ..\..\Firmware\CMSIS\GD\GD32F1x0\Source\ARM\startup_g
d32f1x0.s
   Uses
      At line 85 in file ..\..\Firmware\CMSIS\GD\GD32F1x0\Source\ARM\startup_gd
32f1x0.s
      At line 222 in file ..\..\Firmware\CMSIS\GD\GD32F1x0\Source\ARM\startup_g
d32f1x0.s

TIMER1_IRQHandler 0000001A

Symbol: TIMER1_IRQHandler
   Definitions
      At line 265 in file ..\..\Firmware\CMSIS\GD\GD32F1x0\Source\ARM\startup_g
d32f1x0.s
   Uses
      At line 78 in file ..\..\Firmware\CMSIS\GD\GD32F1x0\Source\ARM\startup_gd
32f1x0.s
      At line 216 in file ..\..\Firmware\CMSIS\GD\GD32F1x0\Source\ARM\startup_g
d32f1x0.s

TIMER2_IRQHandler 0000001A

Symbol: TIMER2_IRQHandler
   Definitions
      At line 266 in file ..\..\Firmware\CMSIS\GD\GD32F1x0\Source\ARM\startup_g
d32f1x0.s
   Uses
      At line 79 in file ..\..\Firmware\CMSIS\GD\GD32F1x0\Source\ARM\startup_gd



ARM Macro Assembler    Page 11 Alphabetic symbol ordering
Relocatable symbols

32f1x0.s
      At line 217 in file ..\..\Firmware\CMSIS\GD\GD32F1x0\Source\ARM\startup_g
d32f1x0.s

TIMER5_DAC_IRQHandler 0000001A

Symbol: TIMER5_DAC_IRQHandler
   Definitions
      At line 267 in file ..\..\Firmware\CMSIS\GD\GD32F1x0\Source\ARM\startup_g
d32f1x0.s
   Uses
      At line 80 in file ..\..\Firmware\CMSIS\GD\GD32F1x0\Source\ARM\startup_gd
32f1x0.s
      At line 218 in file ..\..\Firmware\CMSIS\GD\GD32F1x0\Source\ARM\startup_g
d32f1x0.s

TSI_IRQHandler 0000001A

Symbol: TSI_IRQHandler
   Definitions
      At line 258 in file ..\..\Firmware\CMSIS\GD\GD32F1x0\Source\ARM\startup_g
d32f1x0.s
   Uses
      At line 71 in file ..\..\Firmware\CMSIS\GD\GD32F1x0\Source\ARM\startup_gd
32f1x0.s
      At line 209 in file ..\..\Firmware\CMSIS\GD\GD32F1x0\Source\ARM\startup_g
d32f1x0.s

USART0_IRQHandler 0000001A

Symbol: USART0_IRQHandler
   Definitions
      At line 276 in file ..\..\Firmware\CMSIS\GD\GD32F1x0\Source\ARM\startup_g
d32f1x0.s
   Uses
      At line 90 in file ..\..\Firmware\CMSIS\GD\GD32F1x0\Source\ARM\startup_gd
32f1x0.s
      At line 227 in file ..\..\Firmware\CMSIS\GD\GD32F1x0\Source\ARM\startup_g
d32f1x0.s

USART1_IRQHandler 0000001A

Symbol: USART1_IRQHandler
   Definitions
      At line 277 in file ..\..\Firmware\CMSIS\GD\GD32F1x0\Source\ARM\startup_g
d32f1x0.s
   Uses
      At line 91 in file ..\..\Firmware\CMSIS\GD\GD32F1x0\Source\ARM\startup_gd
32f1x0.s
      At line 228 in file ..\..\Firmware\CMSIS\GD\GD32F1x0\Source\ARM\startup_g
d32f1x0.s

USBDWakeUp_IRQHandler 0000001A

Symbol: USBDWakeUp_IRQHandler
   Definitions
      At line 285 in file ..\..\Firmware\CMSIS\GD\GD32F1x0\Source\ARM\startup_g
d32f1x0.s
   Uses



ARM Macro Assembler    Page 12 Alphabetic symbol ordering
Relocatable symbols

      At line 105 in file ..\..\Firmware\CMSIS\GD\GD32F1x0\Source\ARM\startup_g
d32f1x0.s
      At line 236 in file ..\..\Firmware\CMSIS\GD\GD32F1x0\Source\ARM\startup_g
d32f1x0.s

USBD_HP_IRQHandler 0000001A

Symbol: USBD_HP_IRQHandler
   Definitions
      At line 284 in file ..\..\Firmware\CMSIS\GD\GD32F1x0\Source\ARM\startup_g
d32f1x0.s
   Uses
      At line 101 in file ..\..\Firmware\CMSIS\GD\GD32F1x0\Source\ARM\startup_g
d32f1x0.s
      At line 235 in file ..\..\Firmware\CMSIS\GD\GD32F1x0\Source\ARM\startup_g
d32f1x0.s

USBD_LP_IRQHandler 0000001A

Symbol: USBD_LP_IRQHandler
   Definitions
      At line 283 in file ..\..\Firmware\CMSIS\GD\GD32F1x0\Source\ARM\startup_g
d32f1x0.s
   Uses
      At line 100 in file ..\..\Firmware\CMSIS\GD\GD32F1x0\Source\ARM\startup_g
d32f1x0.s
      At line 234 in file ..\..\Firmware\CMSIS\GD\GD32F1x0\Source\ARM\startup_g
d32f1x0.s

UsageFault_Handler 00000010

Symbol: UsageFault_Handler
   Definitions
      At line 175 in file ..\..\Firmware\CMSIS\GD\GD32F1x0\Source\ARM\startup_g
d32f1x0.s
   Uses
      At line 51 in file ..\..\Firmware\CMSIS\GD\GD32F1x0\Source\ARM\startup_gd
32f1x0.s
      At line 176 in file ..\..\Firmware\CMSIS\GD\GD32F1x0\Source\ARM\startup_g
d32f1x0.s

WWDGT_IRQHandler 0000001A

Symbol: WWDGT_IRQHandler
   Definitions
      At line 250 in file ..\..\Firmware\CMSIS\GD\GD32F1x0\Source\ARM\startup_g
d32f1x0.s
   Uses
      At line 63 in file ..\..\Firmware\CMSIS\GD\GD32F1x0\Source\ARM\startup_gd
32f1x0.s
      At line 201 in file ..\..\Firmware\CMSIS\GD\GD32F1x0\Source\ARM\startup_g
d32f1x0.s

59 symbols



ARM Macro Assembler    Page 1 Alphabetic symbol ordering
Absolute symbols

Heap_Size 00000400

Symbol: Heap_Size
   Definitions
      At line 29 in file ..\..\Firmware\CMSIS\GD\GD32F1x0\Source\ARM\startup_gd
32f1x0.s
   Uses
      At line 33 in file ..\..\Firmware\CMSIS\GD\GD32F1x0\Source\ARM\startup_gd
32f1x0.s
Comment: Heap_Size used once
Stack_Size 00000400

Symbol: Stack_Size
   Definitions
      At line 18 in file ..\..\Firmware\CMSIS\GD\GD32F1x0\Source\ARM\startup_gd
32f1x0.s
   Uses
      At line 21 in file ..\..\Firmware\CMSIS\GD\GD32F1x0\Source\ARM\startup_gd
32f1x0.s
Comment: Stack_Size used once
__Vectors_Size 00000168

Symbol: __Vectors_Size
   Definitions
      At line 139 in file ..\..\Firmware\CMSIS\GD\GD32F1x0\Source\ARM\startup_g
d32f1x0.s
   Uses
      At line 43 in file ..\..\Firmware\CMSIS\GD\GD32F1x0\Source\ARM\startup_gd
32f1x0.s
Comment: __Vectors_Size used once
3 symbols



ARM Macro Assembler    Page 1 Alphabetic symbol ordering
External symbols

SystemInit 00000000

Symbol: SystemInit
   Definitions
      At line 146 in file ..\..\Firmware\CMSIS\GD\GD32F1x0\Source\ARM\startup_g
d32f1x0.s
   Uses
      At line 148 in file ..\..\Firmware\CMSIS\GD\GD32F1x0\Source\ARM\startup_g
d32f1x0.s
Comment: SystemInit used once
__main 00000000

Symbol: __main
   Definitions
      At line 147 in file ..\..\Firmware\CMSIS\GD\GD32F1x0\Source\ARM\startup_g
d32f1x0.s
   Uses
      At line 150 in file ..\..\Firmware\CMSIS\GD\GD32F1x0\Source\ARM\startup_g
d32f1x0.s
Comment: __main used once
2 symbols
409 symbols in table
